{
  "contractName": "Crowdfunding",
  "abi": [
    {
      "anonymous": false,
      "inputs": [
        {
          "indexed": false,
          "name": "contractAddress",
          "type": "address"
        },
        {
          "indexed": false,
          "name": "projectStarter",
          "type": "address"
        },
        {
          "indexed": false,
          "name": "projectTitle",
          "type": "string"
        },
        {
          "indexed": false,
          "name": "projectDesc",
          "type": "string"
        },
        {
          "indexed": false,
          "name": "deadline",
          "type": "uint256"
        },
        {
          "indexed": false,
          "name": "goalAmount",
          "type": "uint256"
        }
      ],
      "name": "ProjectStarted",
      "type": "event"
    },
    {
      "constant": false,
      "inputs": [
        {
          "name": "title",
          "type": "string"
        },
        {
          "name": "description",
          "type": "string"
        },
        {
          "name": "durationInDays",
          "type": "uint256"
        },
        {
          "name": "amountToRaise",
          "type": "uint256"
        }
      ],
      "name": "startProject",
      "outputs": [],
      "payable": false,
      "stateMutability": "nonpayable",
      "type": "function"
    },
    {
      "constant": true,
      "inputs": [],
      "name": "returnAllProjects",
      "outputs": [
        {
          "name": "",
          "type": "address[]"
        }
      ],
      "payable": false,
      "stateMutability": "view",
      "type": "function"
    }
  ],
  "bytecode": "0x608060405234801561001057600080fd5b506110b1806100206000396000f3fe608060405234801561001057600080fd5b50600436106100365760003560e01c806385b6e28e1461003b578063a24a2d1614610093575b600080fd5b6100436101c7565b60408051602080825283518183015283519192839290830191858101910280838360005b8381101561007f578181015183820152602001610067565b505050509050019250505060405180910390f35b6101c5600480360360808110156100a957600080fd5b8101906020810181356401000000008111156100c457600080fd5b8201836020820111156100d657600080fd5b803590602001918460018302840111640100000000831117156100f857600080fd5b91908080601f016020809104026020016040519081016040528093929190818152602001838380828437600092019190915250929594936020810193503591505064010000000081111561014b57600080fd5b82018360208201111561015d57600080fd5b8035906020019184600183028401116401000000008311171561017f57600080fd5b91908080601f0160208091040260200160405190810160405280939291908181526020018383808284376000920191909152509295505082359350505060200135610229565b005b6060600080548060200260200160405190810160405280929190818152602001828054801561021f57602002820191906000526020600020905b81546001600160a01b03168152600190910190602001808311610201575b5050505050905090565b600061024e610241846201518063ffffffff61050816565b429063ffffffff61053816565b9050600033868684866040516102639061054a565b80866001600160a01b03166001600160a01b031681526020018060200180602001858152602001848152602001838103835287818151815260200191508051906020019080838360005b838110156102c55781810151838201526020016102ad565b50505050905090810190601f1680156102f25780820380516001836020036101000a031916815260200191505b50838103825286518152865160209182019188019080838360005b8381101561032557818101518382015260200161030d565b50505050905090810190601f1680156103525780820380516001836020036101000a031916815260200191505b50975050505050505050604051809103906000f080158015610378573d6000803e3d6000fd5b50600080546001810182558180527f290decd9548b62a8d60345a988386fc84ba6bc95484008f6362f93160ef3e56301805473ffffffffffffffffffffffffffffffffffffffff19166001600160a01b038416908117909155604080519182523360208084018290526080840188905260a0840189905260c09284018381528c51938501939093528b519596507f6218c120ad6d836da0bfe4d4c44c8375356514fce6ae39ecdcd483fad6056e6695879592948d948d948b948d94606085019260e08601928a0191908190849084905b83811015610460578181015183820152602001610448565b50505050905090810190601f16801561048d5780820380516001836020036101000a031916815260200191505b50838103825286518152865160209182019188019080838360005b838110156104c05781810151838201526020016104a8565b50505050905090810190601f1680156104ed5780820380516001836020036101000a031916815260200191505b509850505050505050505060405180910390a1505050505050565b60008261051757506000610532565b8282028284828161052457fe5b041461052f57600080fd5b90505b92915050565b60008282018381101561052f57600080fd5b610b2e806105588339019056fe60806040526007805460ff1916905534801561001a57600080fd5b50604051610b2e380380610b2e833981018060405260a081101561003d57600080fd5b81516020830180519193928301929164010000000081111561005e57600080fd5b8201602081018481111561007157600080fd5b815164010000000081118282018710171561008b57600080fd5b505092919060200180516401000000008111156100a757600080fd5b820160208101848111156100ba57600080fd5b81516401000000008111828201871017156100d457600080fd5b5050602082810151604090930151600080546001600160a01b0319166001600160a01b038a1617905586519295509293506101149160059187019061013c565b50825161012890600690602086019061013c565b5060015560045550506000600355506101d7565b828054600181600116156101000203166002900490600052602060002090601f016020900481019282601f1061017d57805160ff19168380011785556101aa565b828001600101855582156101aa579182015b828111156101aa57825182559160200191906001019061018f565b506101b69291506101ba565b5090565b6101d491905b808211156101b657600081556001016101c0565b90565b610948806101e66000396000f3fe6080604052600436106100d25760003560e01c80637284e4161161007f578063c19d93fb11610059578063c19d93fb1461026b578063ce845d1d146102a4578063d7bb99ba146102b9578063fbbf93a0146102c1576100d2565b80637284e4161461021657806386f325861461022b578063b2d5ae4414610242576100d2565b806342e94c90116100b057806342e94c90146101445780634a79d50c146101775780634c4cea5a14610201576100d2565b806302d05d3f146100d75780630785001c1461010857806337f944cc1461012f575b600080fd5b3480156100e357600080fd5b506100ec6103f7565b604080516001600160a01b039092168252519081900360200190f35b34801561011457600080fd5b5061011d610406565b60408051918252519081900360200190f35b34801561013b57600080fd5b5061011d61040c565b34801561015057600080fd5b5061011d6004803603602081101561016757600080fd5b50356001600160a01b0316610412565b34801561018357600080fd5b5061018c610424565b6040805160208082528351818301528351919283929083019185019080838360005b838110156101c65781810151838201526020016101ae565b50505050905090810190601f1680156101f35780820380516001836020036101000a031916815260200191505b509250505060405180910390f35b34801561020d57600080fd5b5061011d6104b2565b34801561022257600080fd5b5061018c6104b8565b34801561023757600080fd5b50610240610513565b005b34801561024e57600080fd5b50610257610557565b604080519115158252519081900360200190f35b34801561027757600080fd5b506102806105fe565b6040518082600281111561029057fe5b60ff16815260200191505060405180910390f35b3480156102b057600080fd5b5061011d610607565b61024061060d565b3480156102cd57600080fd5b506102d66106d5565b60405180886001600160a01b03166001600160a01b03168152602001806020018060200187815260200186600281111561030c57fe5b60ff168152602001858152602001848152602001838103835289818151815260200191508051906020019080838360005b8381101561035557818101518382015260200161033d565b50505050905090810190601f1680156103825780820380516001836020036101000a031916815260200191505b5083810382528851815288516020918201918a019080838360005b838110156103b557818101518382015260200161039d565b50505050905090810190601f1680156103e25780820380516001836020036101000a031916815260200191505b50995050505050505050505060405180910390f35b6000546001600160a01b031681565b60015481565b60045481565b60086020526000908152604090205481565b6005805460408051602060026001851615610100026000190190941693909304601f810184900484028201840190925281815292918301828280156104aa5780601f1061047f576101008083540402835291602001916104aa565b820191906000526020600020905b81548152906001019060200180831161048d57829003601f168201915b505050505081565b60025481565b6006805460408051602060026001851615610100026000190190941693909304601f810184900484028201840190925281815292918301828280156104aa5780601f1061047f576101008083540402835291602001916104aa565b60015460035410610539576007805460ff19166002179055610533610836565b50610551565b600454421115610551576007805460ff191660011790555b42600255565b600060018060075460ff16600281111561056d57fe5b1461057757600080fd5b3360009081526008602052604090205461059057600080fd5b33600081815260086020526040808220805490839055905190929183156108fc02918491818181858888f193505050506105de573360009081526008602052604081209190915591506105fa565b6003546105f1908263ffffffff6108ee16565b60035560019250505b5090565b60075460ff1681565b60035481565b60008060075460ff16600281111561062157fe5b1461062b57600080fd5b6000546001600160a01b031633141561064357600080fd5b33600090815260086020526040902054610663903463ffffffff61090316565b33600090815260086020526040902055600354610686903463ffffffff61090316565b60038190556040805133815234602082015280820192909252517f5cdc4ab8d637538ead6cc1904d4160343656c8c82bd266635cfd31ac008fffe09181900360600190a16106d2610513565b50565b6000805460058054604080516020601f600260001960018716156101000201909516949094049384018190048102820181019092528281526001600160a01b03909416946060948594919384938493849392909183018282801561077a5780601f1061074f5761010080835404028352916020019161077a565b820191906000526020600020905b81548152906001019060200180831161075d57829003601f168201915b505060068054604080516020601f60026000196101006001881615020190951694909404938401819004810282018101909252828152969c509194509250840190508282801561080b5780601f106107e05761010080835404028352916020019161080b565b820191906000526020600020905b8154815290600101906020018083116107ee57829003601f168201915b50506004546007546003546001549d9e9c9d969c929b5060ff90911699509750939550929350505050565b600060028060075460ff16600281111561084c57fe5b1461085657600080fd5b60038054600091829055815460405191926001600160a01b039091169183156108fc0291849190818181858888f19350505050156108d757600054604080516001600160a01b039092168252517f2f256415efc8561af8db667cb242964b19be7380f379ccdafaa0e54a6f6b70699181900360200190a160019250506105fa565b60035550506007805460ff19166002179055600090565b6000828211156108fd57600080fd5b50900390565b60008282018381101561091557600080fd5b939250505056fea165627a7a72305820a837820098d2ccb90a0f9dc13b0e49fc6ac3cd46d0209655905bada20edf91110029a165627a7a72305820a360f1ac8f71affa7d3388b9b473941a2a115824abf6ea417b73de563fc666110029",
  "source": "pragma solidity ^0.5.8;\n// pragma solidity >=0.4.21 <0.6.0;\n// pragma solidity 0.5.4;\n\n// Importing OpenZeppelin's SafeMath Implementation\n// import 'https://github.com/OpenZeppelin/openzeppelin-solidity/contracts/math/SafeMath.sol';\n\nimport \"openzeppelin-solidity/contracts/math/SafeMath.sol\";\nimport \"./Project.sol\";\n\n\ncontract Crowdfunding {\n    using SafeMath for uint256;\n\n    // List of existing projects\n    Project[] private projects;\n\n    // Event that will be emitted whenever a new project is started\n    event ProjectStarted(\n        address contractAddress,\n        address projectStarter,\n        string projectTitle,\n        string projectDesc,\n        uint256 deadline,\n        uint256 goalAmount\n    );\n\n    /** @dev Function to start a new project.\n      * @param title Title of the project to be created\n      * @param description Brief description about the project\n      * @param durationInDays Project deadline in days\n      * @param amountToRaise Project goal in wei\n      */\n    function startProject(\n        string memory title,\n        string memory description,\n        uint durationInDays,\n        uint amountToRaise\n    ) \n        public \n    {\n        uint raiseUntil = now.add(durationInDays.mul(1 days));\n        Project newProject = new Project(msg.sender, title, description, raiseUntil, amountToRaise);\n        projects.push(newProject);\n        emit ProjectStarted (\n            address(newProject),\n            msg.sender,\n            title,\n            description,\n            raiseUntil,\n            amountToRaise\n        );\n    }                                                                                                                                   \n\n    /** @dev Function to get all projects' contract addresses.\n      * @return A list of all projects' contract addreses\n      */\n    function returnAllProjects() external view returns(Project[] memory) {\n        return projects;\n    }\n}\n",
  "sourcePath": "/Users/juanma/PROJECTS/2019/REALFUND/smart-contracts/contracts/Crowdfunding.sol",
  "compiler": {
    "name": "solc",
    "version": "0.5.8+commit.23d335f2.Emscripten.clang"
  },
  "schemaVersion": "3.0.9",
  "updatedAt": "2019-05-15T06:24:43.776Z",
  "devdoc": {
    "methods": {
      "returnAllProjects()": {
        "details": "Function to get all projects' contract addresses.",
        "return": "A list of all projects' contract addreses"
      },
      "startProject(string,string,uint256,uint256)": {
        "details": "Function to start a new project.",
        "params": {
          "amountToRaise": "Project goal in wei",
          "description": "Brief description about the project",
          "durationInDays": "Project deadline in days",
          "title": "Title of the project to be created"
        }
      }
    }
  },
  "userdoc": {
    "methods": {}
  }
}